{
  "contractName": "PokemonNFT",
  "abi": [
    {
      "inputs": [
        {
          "internalType": "uint256",
          "name": "",
          "type": "uint256"
        }
      ],
      "name": "pokemonCollection",
      "outputs": [
        {
          "internalType": "string",
          "name": "name",
          "type": "string"
        },
        {
          "internalType": "uint256",
          "name": "level",
          "type": "uint256"
        },
        {
          "internalType": "string",
          "name": "type1",
          "type": "string"
        },
        {
          "internalType": "string",
          "name": "type2",
          "type": "string"
        }
      ],
      "stateMutability": "view",
      "type": "function",
      "constant": true
    },
    {
      "inputs": [
        {
          "internalType": "string",
          "name": "_name",
          "type": "string"
        },
        {
          "internalType": "uint256",
          "name": "_level",
          "type": "uint256"
        },
        {
          "internalType": "string",
          "name": "_type1",
          "type": "string"
        },
        {
          "internalType": "string",
          "name": "_type2",
          "type": "string"
        }
      ],
      "name": "mintPokemon",
      "outputs": [],
      "stateMutability": "nonpayable",
      "type": "function"
    },
    {
      "inputs": [
        {
          "internalType": "uint256",
          "name": "index",
          "type": "uint256"
        }
      ],
      "name": "getPokemon",
      "outputs": [
        {
          "components": [
            {
              "internalType": "string",
              "name": "name",
              "type": "string"
            },
            {
              "internalType": "uint256",
              "name": "level",
              "type": "uint256"
            },
            {
              "internalType": "string",
              "name": "type1",
              "type": "string"
            },
            {
              "internalType": "string",
              "name": "type2",
              "type": "string"
            }
          ],
          "internalType": "struct PokemonNFT.Pokemon",
          "name": "",
          "type": "tuple"
        }
      ],
      "stateMutability": "view",
      "type": "function",
      "constant": true
    },
    {
      "inputs": [],
      "name": "getTotalPokemon",
      "outputs": [
        {
          "internalType": "uint256",
          "name": "",
          "type": "uint256"
        }
      ],
      "stateMutability": "view",
      "type": "function",
      "constant": true
    },
    {
      "inputs": [],
      "name": "getPokemonCollection",
      "outputs": [
        {
          "components": [
            {
              "internalType": "string",
              "name": "name",
              "type": "string"
            },
            {
              "internalType": "uint256",
              "name": "level",
              "type": "uint256"
            },
            {
              "internalType": "string",
              "name": "type1",
              "type": "string"
            },
            {
              "internalType": "string",
              "name": "type2",
              "type": "string"
            }
          ],
          "internalType": "struct PokemonNFT.Pokemon[]",
          "name": "",
          "type": "tuple[]"
        }
      ],
      "stateMutability": "view",
      "type": "function",
      "constant": true
    }
  ],
  "bytecode": "0x608060405234801561000f575f80fd5b506110698061001d5f395ff3fe608060405234801561000f575f80fd5b5060043610610055575f3560e01c8063455f9537146100595780635e98c839146100775780636e97cfe4146100aa57806394bea129146100c6578063f0b305db146100e4575b5f80fd5b610061610114565b60405161006e919061097d565b60405180910390f35b610091600480360381019061008c91906109d8565b610328565b6040516100a19493929190610a5a565b60405180910390f35b6100c460048036038101906100bf9190610bde565b6104f4565b005b6100ce61058e565b6040516100db9190610c96565b60405180910390f35b6100fe60048036038101906100f991906109d8565b610599565b60405161010b9190610d1d565b60405180910390f35b60605f805480602002602001604051908101604052809291908181526020015f905b8282101561031f578382905f5260205f2090600402016040518060800160405290815f8201805461016690610d6a565b80601f016020809104026020016040519081016040528092919081815260200182805461019290610d6a565b80156101dd5780601f106101b4576101008083540402835291602001916101dd565b820191905f5260205f20905b8154815290600101906020018083116101c057829003601f168201915b505050505081526020016001820154815260200160028201805461020090610d6a565b80601f016020809104026020016040519081016040528092919081815260200182805461022c90610d6a565b80156102775780601f1061024e57610100808354040283529160200191610277565b820191905f5260205f20905b81548152906001019060200180831161025a57829003601f168201915b5050505050815260200160038201805461029090610d6a565b80601f01602080910402602001604051908101604052809291908181526020018280546102bc90610d6a565b80156103075780601f106102de57610100808354040283529160200191610307565b820191905f5260205f20905b8154815290600101906020018083116102ea57829003601f168201915b50505050508152505081526020019060010190610136565b50505050905090565b5f8181548110610336575f80fd5b905f5260205f2090600402015f91509050805f01805461035590610d6a565b80601f016020809104026020016040519081016040528092919081815260200182805461038190610d6a565b80156103cc5780601f106103a3576101008083540402835291602001916103cc565b820191905f5260205f20905b8154815290600101906020018083116103af57829003601f168201915b5050505050908060010154908060020180546103e790610d6a565b80601f016020809104026020016040519081016040528092919081815260200182805461041390610d6a565b801561045e5780601f106104355761010080835404028352916020019161045e565b820191905f5260205f20905b81548152906001019060200180831161044157829003601f168201915b50505050509080600301805461047390610d6a565b80601f016020809104026020016040519081016040528092919081815260200182805461049f90610d6a565b80156104ea5780601f106104c1576101008083540402835291602001916104ea565b820191905f5260205f20905b8154815290600101906020018083116104cd57829003601f168201915b5050505050905084565b5f604051806080016040528086815260200185815260200184815260200183815250908060018154018082558091505060019003905f5260205f2090600402015f909190919091505f820151815f01908161054f9190610f37565b5060208201518160010155604082015181600201908161056f9190610f37565b5060608201518160030190816105859190610f37565b50505050505050565b5f8080549050905090565b6105a161078b565b5f82815481106105b4576105b3611006565b5b905f5260205f2090600402016040518060800160405290815f820180546105da90610d6a565b80601f016020809104026020016040519081016040528092919081815260200182805461060690610d6a565b80156106515780601f1061062857610100808354040283529160200191610651565b820191905f5260205f20905b81548152906001019060200180831161063457829003601f168201915b505050505081526020016001820154815260200160028201805461067490610d6a565b80601f01602080910402602001604051908101604052809291908181526020018280546106a090610d6a565b80156106eb5780601f106106c2576101008083540402835291602001916106eb565b820191905f5260205f20905b8154815290600101906020018083116106ce57829003601f168201915b5050505050815260200160038201805461070490610d6a565b80601f016020809104026020016040519081016040528092919081815260200182805461073090610d6a565b801561077b5780601f106107525761010080835404028352916020019161077b565b820191905f5260205f20905b81548152906001019060200180831161075e57829003601f168201915b5050505050815250509050919050565b6040518060800160405280606081526020015f815260200160608152602001606081525090565b5f81519050919050565b5f82825260208201905092915050565b5f819050602082019050919050565b5f81519050919050565b5f82825260208201905092915050565b5f5b838110156108125780820151818401526020810190506107f7565b5f8484015250505050565b5f601f19601f8301169050919050565b5f610837826107db565b61084181856107e5565b93506108518185602086016107f5565b61085a8161081d565b840191505092915050565b5f819050919050565b61087781610865565b82525050565b5f608083015f8301518482035f860152610897828261082d565b91505060208301516108ac602086018261086e565b50604083015184820360408601526108c4828261082d565b915050606083015184820360608601526108de828261082d565b9150508091505092915050565b5f6108f6838361087d565b905092915050565b5f602082019050919050565b5f610914826107b2565b61091e81856107bc565b935083602082028501610930856107cc565b805f5b8581101561096b578484038952815161094c85826108eb565b9450610957836108fe565b925060208a01995050600181019050610933565b50829750879550505050505092915050565b5f6020820190508181035f830152610995818461090a565b905092915050565b5f604051905090565b5f80fd5b5f80fd5b6109b781610865565b81146109c1575f80fd5b50565b5f813590506109d2816109ae565b92915050565b5f602082840312156109ed576109ec6109a6565b5b5f6109fa848285016109c4565b91505092915050565b5f82825260208201905092915050565b5f610a1d826107db565b610a278185610a03565b9350610a378185602086016107f5565b610a408161081d565b840191505092915050565b610a5481610865565b82525050565b5f6080820190508181035f830152610a728187610a13565b9050610a816020830186610a4b565b8181036040830152610a938185610a13565b90508181036060830152610aa78184610a13565b905095945050505050565b5f80fd5b5f80fd5b7f4e487b71000000000000000000000000000000000000000000000000000000005f52604160045260245ffd5b610af08261081d565b810181811067ffffffffffffffff82111715610b0f57610b0e610aba565b5b80604052505050565b5f610b2161099d565b9050610b2d8282610ae7565b919050565b5f67ffffffffffffffff821115610b4c57610b4b610aba565b5b610b558261081d565b9050602081019050919050565b828183375f83830152505050565b5f610b82610b7d84610b32565b610b18565b905082815260208101848484011115610b9e57610b9d610ab6565b5b610ba9848285610b62565b509392505050565b5f82601f830112610bc557610bc4610ab2565b5b8135610bd5848260208601610b70565b91505092915050565b5f805f8060808587031215610bf657610bf56109a6565b5b5f85013567ffffffffffffffff811115610c1357610c126109aa565b5b610c1f87828801610bb1565b9450506020610c30878288016109c4565b935050604085013567ffffffffffffffff811115610c5157610c506109aa565b5b610c5d87828801610bb1565b925050606085013567ffffffffffffffff811115610c7e57610c7d6109aa565b5b610c8a87828801610bb1565b91505092959194509250565b5f602082019050610ca95f830184610a4b565b92915050565b5f608083015f8301518482035f860152610cc9828261082d565b9150506020830151610cde602086018261086e565b5060408301518482036040860152610cf6828261082d565b91505060608301518482036060860152610d10828261082d565b9150508091505092915050565b5f6020820190508181035f830152610d358184610caf565b905092915050565b7f4e487b71000000000000000000000000000000000000000000000000000000005f52602260045260245ffd5b5f6002820490506001821680610d8157607f821691505b602082108103610d9457610d93610d3d565b5b50919050565b5f819050815f5260205f209050919050565b5f6020601f8301049050919050565b5f82821b905092915050565b5f60088302610df67fffffffffffffffffffffffffffffffffffffffffffffffffffffffffffffffff82610dbb565b610e008683610dbb565b95508019841693508086168417925050509392505050565b5f819050919050565b5f610e3b610e36610e3184610865565b610e18565b610865565b9050919050565b5f819050919050565b610e5483610e21565b610e68610e6082610e42565b848454610dc7565b825550505050565b5f90565b610e7c610e70565b610e87818484610e4b565b505050565b5b81811015610eaa57610e9f5f82610e74565b600181019050610e8d565b5050565b601f821115610eef57610ec081610d9a565b610ec984610dac565b81016020851015610ed8578190505b610eec610ee485610dac565b830182610e8c565b50505b505050565b5f82821c905092915050565b5f610f0f5f1984600802610ef4565b1980831691505092915050565b5f610f278383610f00565b9150826002028217905092915050565b610f40826107db565b67ffffffffffffffff811115610f5957610f58610aba565b5b610f638254610d6a565b610f6e828285610eae565b5f60209050601f831160018114610f9f575f8415610f8d578287015190505b610f978582610f1c565b865550610ffe565b601f198416610fad86610d9a565b5f5b82811015610fd457848901518255600182019150602085019450602081019050610faf565b86831015610ff15784890151610fed601f891682610f00565b8355505b6001600288020188555050505b505050505050565b7f4e487b71000000000000000000000000000000000000000000000000000000005f52603260045260245ffdfea264697066735822122031d403c682ca3eef0e1d37e17c2c07e564c9f758223e344b719d983933d69ff264736f6c63430008150033",
  "immutableReferences": {},
  "source": "// SPDX-License-Identifier: MIT \npragma solidity ^0.8.18; \n\ncontract PokemonNFT {\n    \n    struct Pokemon {\n        string name; \n        uint level; \n        string type1; \n        string type2; \n    }\n\n    Pokemon[] public pokemonCollection; \n\n    function mintPokemon(string memory _name, uint _level, string memory _type1, string memory _type2) public {\n        pokemonCollection.push(Pokemon(_name, _level, _type1, _type2));\n    }\n\n    function getPokemon(uint index) view public returns (Pokemon memory) {\n        return pokemonCollection[index];\n    }\n\n    function getTotalPokemon() view public returns (uint) {\n        return pokemonCollection.length;\n    }\n    \n    function getPokemonCollection() view public returns (Pokemon[] memory ) {\n        return pokemonCollection; \n    } \n}\n\n\n",
  "sourcePath": "/home/sauljacobson/FEUTECH/Test/my-react-app/contracts/PokemonNFT.sol",
  "compiler": {
    "name": "solc",
    "version": "0.8.21+commit.d9974bed.Emscripten.clang"
  },
  "schemaVersion": "3.4.16",
  "updatedAt": "2024-10-02T09:27:15.594Z",
  "networkType": "ethereum",
  "devdoc": {
    "kind": "dev",
    "methods": {},
    "version": 1
  },
  "userdoc": {
    "kind": "user",
    "methods": {},
    "version": 1
  }
}